:020000021000EC
:10000000E03F082093010100FB000100E100010036
:10001000090101001901010029010100000000008F
:10002000000000000000000000000000C9A6010060
:10003000390101000000000059A701005901010029
:10004000F9AC0100F9AC0100F9AC0100F9AC010018
:10005000F9AC0100F9AC0100F9AC0100F9AC010008
:10006000F9AC0100F9AC0100F9AC0100F9AC0100F8
:10007000F9AC0100F9AC0100F9AC0100F9AC0100E8
:10008000F9AC0100F9AC0100F9AC0100F9AC0100D8
:10009000F9AC0100F9AC0100F9AC0100F9AC0100C8
:1000A000F9AC0100F9AC0100F9AC0100F9AC0100B8
:1000B000F9AC0100F9AC0100F9AC0100F9AC0100A8
:1000C000F9AC0100F9AC0100F9AC0100105D0200CF
:1000D00000C00720BC010000C0C107205C04000074
:1000E00004207146084203D0EFF309800AF022BED3
:1000F000EFF308800AF01EBE704708B5014807F00C
:100100002DFCFEE7A256020008B5024807F026FCC7
:10011000FEE700BFAD56020008B5024807F01EFC1E
:10012000FEE700BFB856020008B5024807F016FC0B
:10013000FEE700BFC356020008B5024807F00EFCF8
:10014000FEE700BFD056020008B5024807F006FCE3
:10015000FEE700BFDE56020008B50AF07BFA0AF09F
:100160001DFBBDE808400AF089BA0B4610B55C1AC1
:10017000944204D2441AE45843F8044BF7E710BD04
:1001800003461A1A8A4203D2002243F8042BF8E7E6
:10019000704716480AF084FB14480AF084FB144C9C
:1001A000144B9C4207D294E803000C3454F8042CFE
:1001B000FFF7DBFFF4E7104B9C4206D254F8080B24
:1001C00054F8041CFFF7DCFFF5E70CF03FFB0AF0E6
:1001D00081FB01F0C5FD02F0FBFC4FF416400AF074
:1001E000C7FE064807F0BAFBFEE700BFE03F082065
:1001F000CC000100D8000100E0000100F25602002E
:10020000144A70B51368014613B94FF08053136058
:100210001068114B4518114E2B44B34298BF104B38
:100220000C4C96BFC81825602060126898BF18460D
:100230000C4B9A4281BF0C4A064B00201A6039B120
:100240000A4A136801331360094B1860094B19609F
:1002500070BD00BFC4C10720FF7FFFEFFE3F071046
:100260001CC60720FF3F082000400820CCC1072003
:10027000C0C10720C8C107200CF004BC0CF00ABCA8
:100280000CF008BC10B504468AB068460CF0A6FE17
:10029000204A214B2260089A2049A260079A626096
:1002A00052B90A681E4882428ABF02F1604202F1D6
:1002B0007042A2F5E82262606268B2F5803F82BFB8
:1002C00002F17042A2F5E82262600022E2600A6850
:1002D00013498A4205D8C3F1405303F50C239B1AF6
:1002E00009E010498A4207D8C3F1804303F580131F
:1002F0009B1A002B00DDE36020460B4BE2611B687C
:10030000A3610A4B1B686361094B1B6823610AB038
:1003100010BD00BF1C0600001CC60720C4C107207A
:1003200000800010FF3F0820C0C10720C8C107207F
:10033000CCC10720FEE70000014B1860704700BFEA
:10034000D4C10720014B1860704700BFD0C10720FF
:1003500008B502480DF0D4FDFEE700BFC82D02002D
:1003600008B502480DF0CCFDFEE700BFE22D02000B
:100370000020704701207047F8B5084B16461A68F0
:100380000F461C4642B10D46EB1BB34204DA23680C
:1003900015F8010B9847F7E73046F8BDD4C10720A0
:1003A000F8B5094B0F46186816461C4658B10D465D
:1003B000EB1BB34205DA23680020984705F8010BD0
:1003C000F6E726EAE670F8BDD0C1072070470020A6
:1003D00070470000074B1B689A68824207D05A6832
:1003E000824204D0DB681B1A5842584170470120F2
:1003F000704700BF40C107200020704700207047B1
:1004000030B504468DB0A8B3684608F0B1FA9DF83F
:100410000030002503F03F0303939DF8013003A84B
:1004200003F03F0304939DF802300B9503F01F0384
:1004300005939DF8043003F01F0306939DF80530E3
:1004400003F00F03013B0793BDF80630C3F30B0322
:10045000A3F26C7308939DF8033003F0070309932C
:10046000BDF80830C3F30B03013B0A930CF03CFCCE
:1004700084E8210000200DB030BD000070B50F4DA4
:100480000F4E2C6814F0010415D128460AF036FEF0
:1004900088B14FF40E70FFF7EFFE302380F835324D
:1004A0003A2380F8344280F8363280F837423060A0
:1004B00028460AF02FFE306870BD00BFF4C1072047
:1004C000DCC1072070B50F4D0F4E2B6813F00104EF
:1004D00016D128460AF012FE90B14FF40E70FFF7C5
:1004E000CBFE012380F83432312380F835323A23B1
:1004F00080F8363280F83742306028460AF00AFE2B
:10050000306870BDF0C10720D8C107202DE9F04741
:10051000ADF50A7D0F4607F0ACFE041E04DD0AF0BF
:1005200061F8204609F0EEFD0DF1140844462B4D0C
:100530000FCD0FC42B68102123600DEB01020024A6
:100540000AA8049409F008FE25498146254A384640
:1005500008F07EFC26460AAD4FF0000ACA451ED0C0
:100560006B69A34217D1AA69049B164423B1642185
:10057000B3FBF1F3B2FBF3F395F80CE00094A98B15
:100580000293890001910392384617496A6858F826
:100590002E3008F05DFC0AF1010A2035DEE7013457
:1005A0000A2CD8D1049B64229E1BB3FBF2F30F49A3
:1005B0000F4AB6FBF3F30096384608F049FC09F001
:1005C00083FC102804D938460A49102208F040FC60
:1005D00001200DF50A7DBDE8F08700BFFC2D02006B
:1005E0001B2E0200422E0200472E0200642E020043
:1005F000832E02008E2E020010B50C46ADF5007D54
:1006000068460AF0FFFA204669464FF0FF3208F0CC
:10061000E9FB01200DF5007D10BD000030B50C4652
:1006200091B02C49054607F030FD002847D008ABB3
:10063000009309AB01930AAB02930BAB03930CAB92
:1006400004932846244906AA07AB07F086FC07282E
:1006500001D000203BE09DF83930069A0DA862F3E6
:1006600003038DF83930079A9DF8383062F304039C
:100670008DF83830089ABDF83A3062F30B03ADF8C4
:100680003A30099A9DF8363062F304038DF836301B
:100690000A9A9DF8353062F305038DF835300B9AD0
:1006A0009DF8343062F305038DF834300C9A9DF8D0
:1006B000373062F302038DF8373008F081F908F023
:1006C0001BFA06490246204608F0C2FB012011B081
:1006D00030BD00BFB82E0200BC2E0200914E0200B9
:1006E000F7B50D464E49044607F0BFFD064640B13A
:1006F00006F0C8FF28464B494FF0FF3208F072FB66
:100700008BE02046484907F0B0FD60B306F0DEFFFD
:1007100046490246284608F09BFB06F0E3FF4449A1
:100720000246284608F094FB06F0D6FF41490246EF
:10073000284608F08DFB304606F0BEFF0646012035
:1007400006F0BAFF0446022006F0B6FF0746032073
:1007500006F0B2FF009701903749284632462346FB
:1007600008F076FB59E02046344907F08EFC50B182
:1007700001212022204607F026FD204607F077FDC4
:1007800007F0CCF849E020462D4907F07EFC0646EC
:1007900020B920462B4907F078FC60B320462A494F
:1007A00007F061FC60B92046284907F05CFC28B9D5
:1007B0002046274907F057FC044602E0032400E0E6
:1007C00002242046314606F0FFFF224A224B002E2B
:1007D00018BF1A463CB1012C07D01C491A4B022CF9
:1007E00018BF0B4602E01D4B00E0194B28461C4980
:1007F00008F02EFB11E0204607F039FD19491A4A8E
:100800000090F523012006F0EDFF204607F02FFDB4
:1008100016490246284608F01BFB012003B0F0BD34
:10082000F72E0200FD2E0200162F02001D2F0200DF
:10083000322F0200472F0200662F0200962F02007F
:100840009A2F0200A22F0200F22E0200EC2E0200CC
:1008500092410200DD2E0200D52E0200E62E02009B
:10086000AB2F0200C42F0200102E0200F72F02004F
:1008700030B589B004AB002400930D46022219491B
:1008800003AB0394049407F076FB022827D107AB4F
:10089000009305AA0398049906AB0594069407945F
:1008A00003F026FC024638B1049B284600930E490B
:1008B000039B08F0CDFA10E0059A069B002A079CDE
:1008C00008BF0122002B08BF012328460749B4FBBB
:1008D000F2F2B4FBF3F308F0BBFA012000E020468B
:1008E00009B030BD2A410200053002002430020068
:1008F0002DE9F0470D46ADF5856D3B49064607F0FD
:100900004EFC3A498146304607F072FC3749304682
:1009100007F08EFC304607F0AAFC0122014681A8B0
:1009200005F006FC044640B1304607F0A0FC304913
:100930000246284608F08CFA50E00DF1040A2146E0
:100940004FF4007250460CF0F1F800940AF046F9AA
:10095000A04606460F4681A851464FF400726B46EA
:1009600005F07FFC08B9009B33BB81A805F051FE60
:10097000B9F1000F19D00AF031F94FF47A7200235F
:100980000BF098FB002304464FF47A723046394648
:100990000BF090FB201A14BF03460123284615498B
:1009A0004246B8FBF3F308F053FA284612494FF0D9
:1009B000FF3208F017FA11E09844B9F1000FCAD1DC
:1009C0004C46009B9C42C6D22B681AF804105B6808
:1009D00028464FF0FF3298470134F2E701200DF529
:1009E000856DBDE8F08700BF523002002A41020049
:1009F0005B3002006F300200FD3502002DE9F04748
:100A00000023BEB00C46554905460C9307F02DFC5B
:100A100020B9284607F02BFC064600E0504E15A8EA
:100A2000314605F0AEFE054620462DB14D49324611
:100A30002B4608F00DFA8CE04B49324608F008FAD4
:100A4000A8461EAF802315A80DA91397149305F08F
:100A5000DCFE002865D19DF83D30002B61D09DF86B
:100A60003C10DDF834C011F0100F09BF0C9B44227C
:100A700063440C930ABF2D22013508F1010811F0DF
:100A8000010F14BF52232D2311F0020F14BF4FF09A
:100A9000480A4FF02D0A11F0040F14BF4FF053090C
:100AA0004FF02D0911F0200FBDF8381014BF4FF092
:100AB000410E4FF02D0ECDF808E04FEA612EBDF843
:100AC0003A000EF2BC7ECDF80CE0C1F3431E01F0FB
:100AD0001F010591C1120691C0F345100DF13D01B2
:100AE000CDF810E0CDF820C007900991CDF800A016
:100AF000CDF8049020461D4908F0AAF920461C496B
:100B00004FF0FF3208F05AF9394620464FF0FF32D5
:100B100008F054F9204611494FF0FF3208F062F90D
:100B20008FE700953EAD55F8C83D12494246204634
:100B300008F08EF9304629460BAA05F095FE40B91B
:100B40000B9B20469A780C9B0B495A43520808F09D
:100B50007FF901203EB0BDE8F08700BFFD350200FF
:100B60008A3002008D300200B1300200CC30020029
:100B7000F9300200FD3002002731020070B50D4649
:100B8000064607F074FB0446304607F070FB05F09C
:100B90002DFF064A064B0749002818BF1346284672
:100BA000224608F055F9012070BD00BFE73202006F
:100BB000DD3202003B31020070B50D46064607F0FB
:100BC00056FB0446304607F052FB05F0B2FE064ADB
:100BD000064B0749002818BF13462846224608F04E
:100BE00037F9012070BD00BFE7320200DD3202009C
:100BF000573102007FB503AB002400930E4602225A
:100C00000F4902AB0294039407F0B5F9022814D1FE
:100C1000029D039C2846214605F092FF094B0A4994
:100C20002A4600280CBF084618460849009023466B
:100C3000304608F00DF9012000E0204604B070BDF8
:100C40002A410200E7320200DD320200693102006F
:100C500030B5ADF50D7D0C46054607F008FB0A22C0
:100C6000014603A805F064FA40B1284607F0FFFAF0
:100C70001F490246204608F0EBF835E08DF80700E2
:100C800002901C4920467E2242F2107308F0E0F8E0
:100C90002046194908F0DCF8236820461B680DF14E
:100CA000070142F21072984718B19DF807307E2B69
:100CB00003D103A805F0ADFC16E003A80DF1070170
:100CC000012202AB05F08BFB10B9029B012B02D075
:100CD00020460A49DEE7236820465B689DF8071036
:100CE0004FF0FF329847D7E701200DF50D7D30BD5D
:100CF00081310200A8310200E0310200003202001E
:100D00002DE9F047ADF5407D002304AC236003934B
:100D10000D4600944249022203AB07F02CF9022849
:100D200006D028463F494FF0FF3208F05BF871E0EB
:100D300017A8216805F025FD18B128463A49226810
:100D400007E017A8039905F01CFD28B1284637498C
:100D5000039A08F07DF85DE040A94FF4807205A881
:100D600007F0CAF80AA880A94FF4807207F0C4F807
:100D700020AB159317A880230FA9169305F045FD06
:100D8000002841D19DF84530002B3DD09DF84430DE
:100D900003F0100303F0FF06002BE9D1039A0DF1D5
:100DA000450305A8224907F0ACFA22680DF1450376
:100DB0001F490AA807F0A5FA05A807F058FA8046C7
:100DC0000AA807F054FA074605A8DDF83C9007F09A
:100DD0004EFA82460AA807F04AFA324601463346DE
:100DE0000096504603F084F9124A134BCDF8009058
:100DF00000280CBF1846104610490190424628466C
:100E00003B4608F025F8B3E70AA807F08BF805A8D9
:100E100007F088F801200DF5407DBDE8F08700BFA0
:100E20002A410200273202006C3202009132020095
:100E3000B1320200E7320200DD320200B7320200B6
:100E4000F8B50D462349064607F00FFA0446074653
:100E500028B1FFF737FB002100F235200AE03046C9
:100E60001D4907F002FA044650B1FFF707FB394667
:100E700000F235200A4605F0F3FE1849184B1EE033
:100E80003046184907F0F1F9044648B1FFF71AFB5C
:100E9000012200F2352105F00DF91349134B0EE044
:100EA0003046134907F0E1F9044680B1FFF7E6FA4E
:100EB000012200F2352105F0FDF80E490E4B002805
:100EC00008BF19464FF0FF32284607F08BFF204637
:100ED000F8BD00BF3E33020048330200E03202009A
:100EE000D632020055330200FD320200ED3202001C
:100EF0005E330200223302001433020008B50846B4
:100F00004FF0FF32084907F06DFF06F0BBFB4FF4CE
:100F1000FA6009F0F7F84FF08043AA221A72002213
:100F20001A70012008BD00BF6A33020010B501200D
:100F30000C4606F0D5FF38B100210A460B4608F0F2
:100F40005BFC2046044901E0204604494FF0FF3293
:100F500007F048FF012010BD7B33020091330200EF
:100F600038B5064C236833B91C20FFF785F90546D0
:100F700007F006FC2560206838BD00BFE8C10720E7
:100F80002DE9F04F0D46C7B05549814607F094F85A
:100F900054498246484607F08FF8534983464846ED
:100FA00007F08AF800270DF1100805AE04460297F5
:100FB0000397C8F800703760BAF1000F45D000966B
:100FC00048464A4902AA03AB06F0C7FF012807DCDE
:100FD000284647494FF0FF3207F004FF38467CE0CF
:100FE0000DF118084FF480744046394622460BF044
:100FF0009DFD336813B90123336003E0B3F5807FAF
:1010000088BF3460FFF7ACFF33689DF808109DF887
:101010000C200093434607F0E0FF364A364B374931
:10102000002808BF13462846029A07F011FF002443
:1010300033689C424ED2039A18F804302244284662
:101040002F4907F005FF0134F2E7BBF1000F2CD068
:10105000CDF8008048462B4902AA03AB06F07DFF7D
:10106000032807D0284628494FF0FF3207F0BAFE80
:10107000504632E0FFF774FF9DF808109DF80C20F1
:1010800098F8003007F0BEFF48B1039B2846009354
:101090001E49D8F80020029B07F0DAFE1AE0284625
:1010A0001B49029A07F0D4FE14E0A8B10223029370
:1010B000029BFE2B10DCFFF753FF9DF8081007F092
:1010C000ACFF20B128461349029A07F0C1FE029BEB
:1010D0000233ECE7012000E0204647B0BDE8F08F86
:1010E0004D420200CA330200D0330200D93302005D
:1010F000E8330200E7320200DD3202000934020068
:101100002D3402003D3402004D34020074340200DC
:101110008E340200AB3402002DE9F04F5F4C91B0E9
:1011200023680E4633B92C20FFF7A6F8054607F0D2
:10113000BBFD25602768FFF7A1F90DF1400B0024E6
:101140004BF80C4D00F2352059460CAA05F08CFBEB
:1011500048B90C9A0D9C95699378023D5C435D43B8
:1011600064086D0800E025464D4B1A6898467AB928
:101170000C20FFF781F88146FFF7F2FE902389F8F3
:1011800004300023C9F80000C9F80830C8F80090FE
:10119000D8F8000002F09AFF80460AF045FF824628
:1011A0000AF09EFD014640460AF0E4FC3D490AF083
:1011B000EBFD0AF039FF8146584609F081FB03F048
:1011C000D3FE50B307F012FD03F0B8FE0023024631
:1011D00098469B4693420DD018460B920A9303F013
:1011E00011FF0A9B584588BF98460B9A88BF8346D3
:1011F0000133EFE707F012FD642303FB0BF32A4AE8
:101200003046B3FBF2F3C3F164038DE808092749C4
:1012100022462B4607F01CFE05E0304624492246B4
:101220002B4607F015FE234C23681BB90120FFF75E
:1012300023F82060206802F00DFF044607F05CFCF4
:101240009DF83930019003F00F0302939DF8383078
:10125000009403F01F030393BDF83A303046C3F304
:101260000B0304939DF83630134903F01F030593D5
:101270009DF83530524603F03F0306939DF8343015
:1012800003F03F030793BB8C0893FB8C09934B46F9
:1012900007F0DEFD012011B0BDE8F08FECC10720A2
:1012A000E0C1072000002041A0860100D1340200E7
:1012B00005350200E4C107201335020070B5ADF515
:1012C0000A7D05460C4606F03FFE0B2803DD20464E
:1012D00020490C2237E0284606F0C9FF01220146CA
:1012E00001A804F025FF064638BB01A805F091F9D6
:1012F000284606F0BCFF18490246049B204607F02A
:10130000A7FD236820469B6898470A2008F0FAFE4C
:1013100009F0FAF9284606F0AAFF02460F4B0068CA
:10132000516803C390680E4A186043F80C2C4FF0C4
:101330008043AA221A721E7007E0284606F097FF23
:1013400002462046074907F083FD01200DF50A7D7E
:1013500070BD00BF90350200B73502004840024022
:101360000DD0ADDEFE350200F0B5404CA5B02368CF
:101370000646DB070D460CD4204609F0BFFE40B1FF
:101380004FF480600BF07EFB394B1860204609F06B
:10139000C1FE3046374906F08FFE0746044610B3BB
:1013A0000021802204A80BF0C1FB002302930393C9
:1013B00003AB0093304904AA02AB304606F0CDFDE2
:1013C0002B4A029B116804A8039A13B902F030FF5C
:1013D00001E002F050FF0346284A29492846002B25
:1013E00018BF114637E03046264906F065FE07462D
:1013F000002838D0304604AB234903AA0394049450
:101400008DF8084006F0A9FD039E049B3344B3F514
:10141000806F0DDD28461D494FF4806221E0144B9A
:101420009DF808201B689A559DF8083001361C4429
:10143000039B049AF31A934210DAB6F5806F0DDA23
:101440002B6828461B6802A94FF4FA6298470028C7
:10145000E5D128460E4907F0FBFC04E02846224669
:101460000C4907F0F5FC384625B0F0BDFCC107205B
:10147000F8C1072029360200303602001736020074
:101480001336020040360200473602005136020091
:10149000753602008536020030B50C46054687B029
:1014A0000A4907F0D5FCA17A62880091E17A238885
:1014B0000191E1882846029121890391A188049134
:1014C000034907F0C5FC07B030BD00BF96360200E7
:1014D000CC3602001FB501A80C4602F0D1F801F08D
:1014E000BBFD01A902462046FFF7D6FF012004B04C
:1014F00010BD00002DE9F0418CB003AB0024009337
:101500000E4615463A49022202AB0294039406F0B5
:1015100032FDA04239DD02980BF0A9F85FFA80F89D
:10152000039818B10CF0C7FFC4B200E0044604A849
:10153000002102F02DFC30B130462E494FF0FF3231
:1015400007F050FCF3E7003518BF01250223009394
:1015500040462946039A234601F0B4FE074638B9AF
:10156000304625494FF0FF3207F03CFC01273BE0B5
:10157000002D39D004A84FF47A7102F013FC70B337
:101580009DF8103043452AD101E027462CE09DF814
:1015900017300C2B04D1304606A94246FFF77CFFDA
:1015A0003046B4B9154907F053FC9DF817309C42FA
:1015B0000ADA336804AA2244117A5B6830464FF095
:1015C000FF3298470134F0E730460D4907F040FC00
:1015D0000AE00C494FF0FF3207F004FC04E030460B
:1015E0000949029A07F034FC38460CB0BDE8F08196
:1015F0002A410200EA3602000C37020034370200AA
:101600007F3D0200483702006537020038B50D46BD
:1016100006F02FFE0446C0B201F012FD054A064B4B
:101620000649002808BF13462846224607F010FC4A
:10163000012038BD8B370200DD32020092370200F4
:1016400037B50C4601F080FE05461649204607F0E6
:10165000FFFB154920462A4607F0FAFB20461149B0
:1016600007F0F6FBD5B11149204607F0F1FB204603
:101670000C4907F0EDFB0025E8B201F04FFE013503
:1016800040B181780278437800912046084907F0FC
:10169000DFFBF1E72046034907F0DAFB012003B046
:1016A00030BD00BFA9370200C4370200DE37020098
:1016B000F937020030B58BB00AAA4FF47A730C46A2
:1016C00042F8243D174906F048FC002502A801997C
:1016D00002F05EFBD8B1204613499DF8082007F0C0
:1016E000B7FB00259DF80F309D420ADA236802AA55
:1016F0002A44117A5B6820464FF0FF329847013543
:10170000F0E72046094907F0A3FB0125DEE72DB9E4
:10171000204607494FF0FF3207F064FB01200BB071
:1017200030BD00BF4E36020014380200FC35020006
:101730002B3802002DE9F3473C4C074626688946C2
:10174000002E62D12420FEF797FD0423054680E891
:1017500048008660C660202130460CF03BFCAE6835
:10176000E8604FEA8608072E0ED81020FEF784FDA9
:101770008246002110220BF0D9F9EB68013643F8BC
:1017800008A008F10408EEE7002608234FF001083E
:101790006B6085F8208028462549264A264B00960E
:1017A000256005F0EBFC20682449254A254B00966E
:1017B00005F0E4FC20682449244A254B009605F0F6
:1017C000DDFC20682349244A244B009605F0D6FC12
:1017D00020682349234A244B009605F0CFFC20685B
:1017E0002249234A234BCDF8008005F0C7FC20682E
:1017F0001E49214A214B009605F0C0FC0096206846
:101800001F49204A204B05F0B9FC38461F4906F015
:101810002CFD18B138461E4906F0E1FD39464A460E
:10182000206802B0BDE8F04705F08ABD04C2072079
:10183000E11A01003C38020043380200B5180100EB
:101840007D38020086380200B5160100DA38020041
:10185000DD3802000D1601005F3E02000039020073
:1018600041160100463902002A390200F514010030
:101870008F3902004D3902008E390200933902007F
:10188000D5140100D3390200B8390200FD35020039
:10189000D939020038B5064C236833B95820FEF711
:1018A000EBFC054607F044F82560206838BD00BF12
:1018B00000C207202DE9F04F0446ADF2DC5D802226
:1018C0000DF1B40988460DA800210BF02FF9002175
:1018D000802248460BF02AF906AE002333602046EA
:1018E000009675490DAA4B4606F037FB032801D038
:1018F0000020DDE0EDA80DA9012204F019FC054649
:101900000028F5D1FFF7C6FF33684DA980F85330A2
:101910008022044608A88DF81750079506F0ECFAC7
:10192000CDF80090404665490DAA336807F090FA5B
:101930002F46EDA86DA94FF4007207AB04F091FC9F
:1019400038B1EDA804F065FE08A806F0EBFA012016
:10195000AEE0079B002BF4D06E1C5949079A204635
:1019600007F076FA236820469B6898476DAB9B4644
:10197000751E4FF0000A0799C3EB0B028A422268DA
:101980000FD20393CDF808B0D2F804C020464FF030
:10199000FF321BF8011BE047029B1A78039B92441D
:1019A000E9E793682046984708A806F060FC83465C
:1019B00008A806F0CCFA4FF47A730246594620463E
:1019C00007F01EFA0121202208A806F0FCFB08A857
:1019D00006F04FFC504520D008A806F04AFC3949D3
:1019E00003465246404607F033FA2046364907F090
:1019F0002FFA236820469B689847236820461B6877
:101A00000DF117014FF47A7298470028F5D1022E94
:101A100006F1010395D81E469FE7079B2B494A46CE
:101A2000009320463B4607F013FA236820469B6844
:101A3000984708A806F01BFC824608A806F087FA1B
:101A4000514602464FF47A73204607F0D9F908A8A8
:101A50001F4906F008FBD0B908A806F008FC1D498C
:101A60000246404607F0F4F92046174907F0F0F91E
:101A7000236820469B689847236820461B680DF121
:101A800017014FF47A7298470028F5D1BFE708A8EC
:101A9000114906F0A4FC079B40461F440F493A46F3
:101AA000F09B07F0D5F9002D3FF443AF013D40E72F
:101AB0000DF2DC5DBDE8F08FDE390200ED39020089
:101AC000043A0200163A0200FC3502003D3A0200D8
:101AD000533A0200563A0200FD3502008E3A0200E7
:101AE0002DE9F041074686B006AA002442F80C4DC5
:101AF0000E463C4906F031FA38460121202206F014
:101B000062FB039B002B63D0384606F01DFA0028C9
:101B10005ED0FFF7BFFE05468DF80B402B682846C8
:101B20001B680DF10B010522984704460028F5D1EA
:101B3000039B384685F8533006F099FB274601464B
:101B40004FF0FF32284607F04DF92B6828469B6876
:101B50009847254B0594186804902B6828461B6805
:101B60000DF10B014FF47A72984778B10DF1150120
:101B7000032205A80AF0BFFF9DF80B8005A804A961
:101B800004228DF817800AF09BFF38B91822B7FBA2
:101B9000F2F302FB137262B101330AE0336830469C
:101BA0005B6841460122013798470028D5D10134AE
:101BB000D3E730460D493A4607F04AF974B161233C
:101BC000009330460A4922460A4B07F041F905E0E6
:101BD000304609494FF0FF3207F004F9012006B002
:101BE000BDE8F0814E360200923602009A3A0200B9
:101BF000C13A02007A3B0200B63B020001480CF0F9
:101C00007FB900BFE23B020038B504460D4609F03B
:101C10005DF9074BB0FBF3F00223B0FBF3F2954202
:101C200001D3236138BDB3F5807FFAD00233F4E7E6
:101C300040420F007FB500F235260C4601223146A6
:101C400004F038FA054650BB04A941F8040D02AA75
:101C5000304604F009FE00BB029A039B907892691B
:101C600003FB00F1023A42435208B2F5004F10481C
:101C700034BF01254FF480654FEA51010D4BB1FB94
:101C8000F5F128BF0346B2FBF5F28DE80A000A48D9
:101C900021460CF0BFF8012008E0084B00E0084B9B
:101CA000084821462A460CF0B5F8002004B070BD63
:101CB000203C02001D3C02002A3C0200233C0200A2
:101CC000273C0200583C020038B5074C23684BB94A
:101CD0000820FEF7D1FA0546FFF742F940232860B5
:101CE0002B712560206838BD10C2072038B5054C1F
:101CF000256825B90120FEF7BFFA0570206020682D
:101D000038BD00BF0CC2072038B5084C23685BB94A
:101D10000C20FEF7B1FA0546FFF722F990232B714C
:101D200000232860AB602560206838BDE0C1072033
:101D300010B5044C23681BB90120FEF79DFA206002
:101D4000206810BDE4C1072010B5044C23681BB9FE
:101D50000120FEF791FA2060206810BD08C207201C
:101D6000AD49AE4A4023F0B58B614FF000739361EB
:101D70004FF480338B61AA4BADF5057D18680725BC
:101D800020F0F00018601868022440F0500018603D
:101D9000186820F440501860086840F0400008605F
:101DA000186820F47C201860186840F42820186017
:101DB000186820F470001860186840F4200018605B
:101DC000186820F040401860186840F00040186023
:101DD000586820F03C005860586840F0280058606F
:101DE000586820F003005860086840F480300860AC
:101DF000586820F440505860086820F4800008605B
:101E0000D96821F44031D960116841F080711160C6
:101E1000596821F440215960596841F48021596082
:101E20009868804901409960116841F4897141F0D6
:101E300001011160996821F470119960996821F08D
:101E400070419960116821F446411160D96821F010
:101E50003001D960D96841F03001D960D96821F4E6
:101E60007011D960136843F000731360136823F096
:101E70008063136006F00CFB0A20012108F046FE87
:101E80000A20012108F05AFE6748012105604460DC
:101E9000FFF7BAFE06F03AFE1520012108F036FEE3
:101EA0001520012108F04AFE6048012105604460C8
:101EB000FFF7AAFEFFF754F8642106F02BFC10B9D7
:101EC0005B480CF01DF808F05FFE01F03BFF10B915
:101ED00058480CF015F84FF4FA6006F097FAFFF73F
:101EE0008DFE08F0F3FF09F0F7FE53490AF000F801
:101EF00009F078FD02460B4650480BF08BFF08F0C6
:101F0000D9FC052804AC14D1002363604C4B1B683A
:101F10002360FFF773FE4B4B4B48D96C1A6D5B6D1A
:101F200000940BF077FFFFF769FE41F2883006F06E
:101F30006DFAFEF7A3FA4549FFF77CFE054668BB3C
:101F400043480BF067FF03F087F8FEF797FA29463E
:101F50002A4600F2352004F083FE3E4B3E4A00281C
:101F60000CBF104618460BF0CBFFFEF787FA374937
:101F7000FFF760FE90B939480BF0C2FF02F0EEFFA8
:101F8000014637480BF046FF02F0D8FF054602F045
:101F9000E5FF05FB00F133480BF03CFF324E334FB9
:101FA000336813F0010516D1304609F0A7F890B157
:101FB0004FF40E70FEF760F9012380F834323123BC
:101FC00080F835323A2380F8363280F8375238605C
:101FD000304609F09FF826493868264DFFF72AFE5B
:101FE00011481821FFF710FEFFF708FE2B684BB9C8
:101FF0000820FEF741F90646FEF7B2FF38233060AD
:1020000033712E60286801F01CFF0546B0BB1A48EA
:102010000BF076FF33E000BF00C0092020C009208C
:1020200000C00240F0FCFCFF0000034000800840BC
:102030009C3C0200CD3C020000247449F23C0200AA
:1020400044400240004002400A3D0200823D02003E
:102050008A3D0200903C02008B3C0200C73D02001A
:10206000E63D0200F53D0200F0C10720D8C107207F
:102070000C33020018C20720103E02000125FFF7B2
:1020800043FE01F0F9FF064618B972480BF038FF1D
:102090003546FFF719FE01F065FF064618B96E4890
:1020A0000BF02EFF35466D4E33681BB90120FEF74D
:1020B000E3F83060306801F013FFFFF739FE01F0FC
:1020C000C7FFFFF713FE01F092FFFFF73DFE01F09F
:1020D000C4FFFFF70BFE002101F08CFF8DB9FFF765
:1020E0008DFDFFF7F1FD2D2101F024FFFFF7ECFD41
:1020F0002D2101F02BFFFFF7F9FDFF2101F07AFF01
:102100000CE0FFF7E1FD0546FFF7FEFD01F0DEFF05
:1021100009F0B0FFC1B2284601F04BFF00211022A8
:1021200020460AF003FD4E4821460F22002302F00C
:102130005CF880B920460AF09AFAC5B2284600F049
:102140007FFF484A484B2946002808BF13464748A6
:10215000434A0BF05FFEFFF7EBFD01F07BFF054606
:1021600000200DF04DF928440BF0D2FE4FF4007220
:10217000002120460AF0DAFC204608F043FD214603
:102180003B480BF047FEFFF739FD80220021204637
:102190000AF0CCFC204602F0BDFE2278FF2A04D0D3
:1021A000214634480BF036FE29E0FFF7CDFD01F063
:1021B00057FF09281DD130480BF0A2FE21462F48B9
:1021C0000BF0DAFF21462E480BF024FE2D480BF0D1
:1021D00097FE00232C4803A903930BF0CDFF9DF835
:1021E0000C30592B03D1204602F072FE07E027483D
:1021F00003E027480BF084FE26480BF081FE4FF2E7
:1022000008031C684FF20C031D684FF210031E6890
:102210004FF2040319684FF470431A68A40AAD0A18
:102220001D480BF0F7FD224629461C480BF0F2FD35
:1022300031461B480BF0EEFDFFF7E0FC012005F0F6
:1022400057FA18480BF05CFEFFF7D8FC0DF5057D3A
:10225000F0BD00BF2B3E0200453E020014C2072025
:102260005E3E02008B370200963C0200643E020094
:10227000914E0200983E0200B43E0200D63E02009B
:10228000DB3E0200F63E0200393F02003D3F020005
:10229000553F0200833F0200B53F0200E13F0200CC
:1022A0000E4002002B4002000120704701207047C1
:1022B0000120704701207047012070477047642358
:1022C00010B500210446C3610322012007F063FA20
:1022D0000146206620B1BDE81040012005F0DABDBE
:1022E00010BD10B50446FDF7C9FF204610BD000023
:1022F00037B5044600250B4600950C494FF4C062E3
:1023000005F0AEFD0A4B002223600023C4E91A2326
:10231000C4E91C23E565256604F13400294628221A
:102320000AF004FC204603B030BD00BFA940020003
:10233000E040020010B53030002350F8044F8C42CA
:1023400002D11360012010BD01330A2BF5D100200A
:1023500010BD000010B5044C23681BB90120FDF727
:102360008BFF2060206810BD14C20720F0B5044622
:1023700097B0002506A9402201A8009505F0BCFDF4
:10238000206E29462A462B4607F00AFBC0B35D485B
:102390000BF0B6FDFFF798FC2D2101F0CBFDFFF708
:1023A00093FC2D2101F0D2FD04F13006FFF7D2FF9E
:1023B00001F0B0FD18B9642007F0A4FEF6E7FFF7BE
:1023C000C9FF01F0AFFD07462A464F493B4601A829
:1023D00005F097FF01A805F04AFF0BF091FD46F8C4
:1023E000047FFFF771FCE9B2013501F0E2FD0A2D2F
:1023F000DCD146480BF084FD4FF4FA6007F082FE12
:10240000D4E91C2313432AD0FFF7A4FF01F082FD77
:10241000002856D0FFF79EFF01F084FD6A46014672
:102420002046FFF787FF00284BD0E26D009B134446
:10243000E365FFF749FC00993031C9B201F086FD30
:102440004FF4FA6007F05EFEFFF784FF01F06AFDCB
:1024500000220023C4E91A23C4E91C234CE0FFF73F
:1024600079FF01F057FD002846D0FFF773FF01F018
:1024700059FD6A4601462046FFF75CFF00283BD025
:1024800042F21076FFF720FC009900273031C9B2E4
:1024900001F050FDFFF718FC2D2101F057FD009AC7
:1024A0000A235343C4E91C67E36508F097FB4FF424
:1024B0007A72002309F0FEFD80197941C4E91A01FE
:1024C0001AE0D4E91C23134316D008F087FB4FF41D
:1024D0007A72002309F0EEFDD4E91A23994208BF6D
:1024E000904209D300220023C4E91A23C4E91C2323
:1024F000FFF7EAFB01F052FD01A805F013FD0120F2
:1025000017B0F0BD75400200B0400200C2400200AA
:1025100001207047F8B504460E46C06889000BF0EC
:1025200059FDA568E060AF00B5420BD20C20FDF765
:10253000A3FE0023036043600372E3680135D851B2
:102540000437F1E76660F8BD38B504460F4B002547
:102550000360636DE06D9D4205D250F82500FDF7E4
:102560008DFE0135F5E708B1FDF78AFE0025A36B66
:10257000206C9D4205D250F82500FDF77FFE013505
:10258000F5E708B1FDF77CFE204638BD08410200A2
:1025900010B50446FFF7D8FF2046FDF76FFE204632
:1025A00010BD0000F7B5044600250B464FF48052DD
:1025B0000095254905F054FC244B042623606663EE
:1025C000A563E563256404F134000221FFF7A2FF4F
:1025D00026656565A565E565284660210BF0FAFC72
:1025E000A56DE065AE00172D0CD81020FDF744FE58
:1025F0000746002110220AF099FAE36D01359F5138
:102600000436F0E718236365012384F87030104E18
:102610000023A4F87430A4F87630A36700220023C6
:102620000027C4E92023C4E9226708F0D7FA4FF451
:102630007A72002309F03EFD80197941C4E9200136
:10264000204603B0F0BD00BF204102000841020057
:10265000C0D401002DE9F04191E860000F7A1446E2
:102660008FB1082A23D1304605F06EFC00281CDD0E
:10267000284614494FF0FF3206F0A0FB30460121F6
:1026800005F061FD08E00A2A19D00D2A12D0304663
:10269000214605F079FE97B12B6828462146BDE812
:1026A000F0415B684FF0FF3218470724F4E70A2A2D
:1026B00002D1F1E7BDE8F0810D2AE8D1ECE7BDE8F1
:1026C000F08100BF29410200F8B5044614201546E8
:1026D0000F46FDF7D1FD8021064605F005FEA36BF0
:1026E000E26B9A4206D3616B591803D204F13400AD
:1026F000FFF710FFE36B226C591C52F82330E163A3
:102700001F605E601D72F8BD2DE9F043CF6B85B090
:1027100006460D4601AC4FB94FF47A7007F0F2FC53
:10272000204639460C220AF001FA47E00B6C1B6880
:1027300093E8070084E8070000238DF8033007F0D2
:10274000ABFB80460027EB6B9F4263D22B6C4FEABA
:10275000870953F827301868037C33B103680DF1FB
:1027600003011B680022984708B90137EBE7EB6BC0
:102770009F422BD22B6C53F8093093E8070084E872
:1027800007009DF8032028462146FFF763FF08F065
:1027900025FA4FF47A72002309F08CFCD5E9222344
:1027A00080185941C5E92001029805F0CDFB074684
:1027B000029805F0CCFB013887420ADB94E8070059
:1027C00086E80700304605B0BDE8F08305F1440314
:1027D000D3E7D5E92223134324D008F0FFF94FF4BF
:1027E0007A72002309F066FCD5E92023994208BFDC
:1027F000904217D308F0F2F94FF47A72002309F0EF
:1028000059FCD5E92223801859410023C5E920014C
:102810000193D3E707F040FB4045C5D1022007F004
:1028200071FCC1E79DF803300A2B88D1C6E7000090
:10283000F0B5064685B020480BF0ECFA01A8314609
:10284000FFF762FF019C1CB91C480BF059FB30E0FC
:10285000029F384605F078FB00282ADD08F0BEF913
:102860000546F8B1B6F8743006F150000133A6F809
:1028700074303946224604F063FD114B0026186877
:10288000009023681DF806105B6820464FF0FF3269
:1028900001369847042EF4D108F0A0F9411B0948ED
:1028A0000BF0B8FA384605F054FB236820469B68C5
:1028B0009847012005B0F0BD2C410200FD35020013
:1028C000F84002003241020038B5064C236833B9A3
:1028D0002C20FDF7D1FC054606F0E6F925602068BE
:1028E00038BD00BFECC1072010B50446FFF7ECFF70
:1028F00003682146BDE810405B684FF0FF3218477F
:1029000013B5002302AC04F8013DFFF7DDFF0368B7
:1029100021461B684FF0FF3298479DF8070002B030
:1029200010BD00002DE9F04100F150048AB00025EF
:102930000746009520465B495B4A5C4B04F01EFC51
:10294000009520465A495B4A5B4B04F017FC009502
:1029500020465A495A4A5B4B04F010FC0095204629
:1029600059495A4A5A4B04F009FC009520465949E6
:10297000594A5A4B04F002FC009520465849594ADE
:10298000594B04F0FBFB009520465849584A594BD7
:1029900004F0F4FB009520465749584A584B04F080
:1029A000EDFB009520465749574A584B04F0E6FB8B
:1029B000009520465649574A574B04F0DFFB0095D7
:1029C00020465649564A574B04F0D8FB00952046FE
:1029D0005549564A564B04F0D1FB009520465549BF
:1029E000554A564B04F0CAFB009520465449554AB7
:1029F000554B04F0C3FB009520465449544A554BAF
:102A000004F0BCFB009520465349544A544B04F053
:102A1000B5FB009520465349534A544B04F0AEFB96
:102A2000009520465249534A534B04F0A7FB0095AA
:102A300020465249524A534B04F0A0FB00952046D1
:102A40005149524A524B04F099FBFFF73DFF4FF4B6
:102A500080734FF416412022054606F005F98046A2
:102A600001262E744B48FDF76DFC4B48FDF764FCC6
:102A7000384629463246FFF727FE03A9082205A853
:102A800005F03AFA05A8454905F0A9FC05A92A462A
:102A9000204604F055FC05A805F044FA40460AB06B
:102AA000BDE8F0810D05010092410200484102009D
:102AB000F90501007F410200874102001911010060
:102AC000A5410200974102001D060100ED410200F0
:102AD000AC410200F1080100F2410200F64102009F
:102AE000710801009542020052420200010D0100EE
:102AF0009442020098420200FD090100E3420200F4
:102B0000E64202007D0B0100144302001A4302005A
:102B1000F50B01003F43020042430200510C01004B
:102B2000C95A02006F430200B90B0100944302002E
:102B300097430200810F0100BA430200BE43020026
:102B4000410E01009144020099440200FD0E010073
:102B5000DC440200E3440200E1060100F644020006
:102B6000FA4402002D0F0100F9450200FF45020062
:102B700035170100E93C02002746020069130100F5
:102B80004547020051460200BD1201004F330200CA
:102B90000E47020001290100E9280100D93902008D
:102BA00001207047012070477047704710B50446F8
:102BB000FDF764FB204610BD10B50446FDF75EFB33
:102BC000204610BD08B501F0F7F8012008BD00004F
:102BD00037B53420FDF750FB054600244FF4007252
:102BE0001A490094012305F03BF9194B28462B6044
:102BF00005F006F99020FDF73FFB05460321FFF79E
:102C0000D1FC284605F0FCF83420FDF735FB0546DD
:102C10004FF400720F490094042305F021F90E4B84
:102C200028462B6005F0ECF87820FDF725FB0546DB
:102C30000121FFF75DFB284605F0E2F8204621461A
:102C400005F0ECF84FF0FF3003B030BDE84702006C
:102C5000D0470200E93C0200B0470200242310B52F
:102C600003FB010188420BD043783BB1038CD4189D
:102C70004FF6FF73A34228BF234603842430F1E7B5
:102C800010BD000037B5002302A840F8043D0C4BEE
:102C900004215B6898470B4B019A1C680546141B7E
:102CA0001A60094822460421FFF7D8FF074802218D
:102CB0002246FFF7D3FF281C18BF012003B030BD08
:102CC0001CC20720E8C2072030C207200BC3072020
:102CD00008B50B4B197803788B420A4B0BBF1A8847
:102CE0009A880132013214BF9A801A80064B817093
:102CF000DB6820219847003018BF012008BD00BFC5
:102D000005C00720D8C207201CC207200A4B027842
:102D10001B789A42094B0BBFDA881A8901320132BB
:102D20000CBFDA801A810379C3F3C202073262F35F
:102D3000C5030371FFF7CCBF05C00720D8C2072029
:102D400010B5002306499A0011F82340844201D1AE
:102D5000881810BD0133042BF4D1002010BD00BF32
:102D6000F9C2072070B1C3780133DBB2FF2BC37007
:102D700008D10023044A1A44D17804334908102B9F
:102D8000D170F7D1704700BFF9C20720242202FB9F
:102D900001010346024630B58A4206D01446243269
:102DA00012F8235C002DF7D10FE0044600258B427A
:102DB0000BD01A79C2F3C2001A8C42EA0042954243
:102DC0003CBF1C4615462433F1E7204630BD0000C9
:102DD00038B50546C90001F10804FFF753FF1C4B45
:102DE0001A782B789A4204D102211A48FFF7CEFFB5
:102DF0000CE019480421FFF7C9FFEB7833B990F8CC
:102E00002330042443F0800380F82330002380F82B
:102E1000203080F8213002462B4690F8231080F8AD
:102E2000224021F07F01C4F306240C4380F82340A4
:102E300005F1200153F8044B8B4242F8044BF9D1C1
:102E4000064A0379127862F3C503037138BD00BFE7
:102E500005C007200BC3072030C2072004C007208D
:102E600010B5FFF76DFF0446F8B9FFF769FF044698
:102E7000D8B90F4BDA79D9788A4228BF0A46D97A6D
:102E800034BF1C1D1C4691422CBF1146094CDA7BF5
:102E9000094B8A4238BF1C4604222046002109F013
:102EA00045FE064AD37A0133D372204610BD00BFD7
:102EB000F9C2072001C3072005C30720D8C2072095
:102EC0002DE9F04105460C464FF0240808FB021896
:102ED0008E1D444500F09E8094F823301A0625D5B7
:102EE000BDB12A7861788A4205D16F7816F8060C50
:102EF000874200F09180E87858B16878884208D11C
:102F000016F8061C914204D1A979A279914200F0E9
:102F1000838094F82220218C03F07F0342EA03236C
:102F2000994274DB2046FFF7D3FE75E06278002AF1
:102F30006DD06DB3297901F0C001C02917D116F801
:102F4000060C6978884202D12878904264D0E778EC
:102F5000A87887420CD191420AD116F8060C29783C
:102F6000884205D1A079A979884201D154E079B18C
:102F7000A878E17888420BD16978914208D116F897
:102F8000060C2978884203D1A079A979884249D0D2
:102F900094F82210208C03F07F0341EA0323984227
:102FA00035DB002384F8203084F821302379C3F303
:102FB000C201CFB21FB12046FFF7A8FE27E003F001
:102FC000C003C02B19D01C4B16F8060C1B78984276
:102FD00013D1E378934210D07BB16379032262F37B
:102FE00007136371E1702046FFF790FE134A2379BF
:102FF000127862F3C503237100E001276078FFF7C0
:103000009FFE18B10021042209F090FD27B9243455
:1030100024365EE7BDE8F08120460021242209F035
:1030200085FDF4E72279002363F3C50284F820309C
:1030300084F821302271EAE705C0072004C0072088
:10304000431EDBB2FD2B9DBF024B187001200020F8
:10305000704700BF05C00720014B1878704700BFBC
:1030600005C0072007289CBF014B1870704700BFA0
:1030700004C007202DE9F743044691461E469DF8FB
:1030800028500F46002963D0354B93F80080414506
:1030900060D00F2E5ED800285ED02022002109F0DB
:1030A00045FDFF2F237914BF09F00302002262F3CC
:1030B0008713032262F302032A4A6770127884F8A6
:1030C000008062F3C503284A2371137884F80280D4
:1030D0000133DBB21370A3710BAB019315B94FF041
:1030E000010818E0019AE0791346526853F8081B6A
:1030F00000EB02085FFA88F8013DB8F1180F019360
:10310000EDB206D80830204409F0EAFC84F80780C4
:10311000E4E74FF00008DFF854900123384689F8BF
:103120000030FFF70DFE0546FFF71CFE002389F86F
:103130000030637925B966F307136371E57005E024
:10314000AA7862F3071363716B78E370404603E07B
:10315000084601E00020FFE703B0BDE8F08300BFB0
:1031600005C0072004C0072009C30720E4C20720C8
:10317000124B012270B51A7004461E4608B900258C
:1031800018E0FFF7A5FD05460028F8D0237903F0E5
:10319000C003402B06D0C02B0AD1E37853B162782C
:1031A0009A4207D0617920460909FFF711FE01E034
:1031B000802BF7D000233370284670BDE4C207206F
:1031C00082B0F0B51746421ED2B28DB0FD2A044639
:1031D0000D46139301D900205AE0002BFBD0159B1C
:1031E000002BF8D0179B002BF5D0169B002BF2D0AC
:1031F000149B002BEFD000214822284809F096FCB0
:1032000000219022264809F091FC00211022254837
:1032100009F08CFC00210C22234809F087FC0021D6
:103220000C22224809F082FC214E224B1C703446AD
:10323000214B1D7013AD0FCD0FC42B680021182238
:103240001E48236009F072FC39461C4817220BF017
:1032500076F90020B368014698470028BBD09DF856
:10326000603013B9FFF70EFD12E0154A01230192F9
:1032700006220292009304A8FF210022FFF7FAFE23
:103280000028A8D004A8FFF773FF0028A3D0E9E71F
:103290000DB0BDE8F04002B0704700BF0BC307207F
:1032A00030C20720F9C20720EDC20720D8C207208C
:1032B0001CC2072005C00720ECC20720C0C207209F
:1032C000F847020030B5182B8DB005460C4615D8CE
:1032D000B2FA82F1181C18BF0120490981420DD0B1
:1032E0008DE80D00294604A822469DF84030FFF7DE
:1032F000C1FE18B104A8FFF73BFF00E000200DB0AD
:1033000030BD13B50446107852790B46120900926D
:1033100003212246FFF7D6FF02B010BD00231A4654
:1033200030B5084C990014F823502DB1904201D1CA
:10333000601830BD0132D2B20133042BF1D100202C
:1033400030BD00BFF9C2072000231846044A12F816
:1033500023200AB10130C0B20133042BF6D17047EB
:10336000F9C207202DE9F04188B0684600212022EB
:1033700009F0DCFBA14B1B7803F0FF04002B40F0AD
:103380003A819F4E6846336920219847002800F013
:1033900083809C4D6B8801336B80FFF7D5FF9DF8D0
:1033A0000420A87202F00703032B04D0964A137876
:1033B00043F0010309E0954B1D789DF80230AB42C4
:1033C00005D1914A137843F002031370E3E0C2F38E
:1033D000C2029DF800E09DF80600D7B28C4904EBCC
:1033E000440313F801C0F4450AD10B4459788142D3
:1033F00006D199780124CF1B18BF01279A7018E0D5
:103400000134042CEAD183490B689A70804A5870C1
:1034100002F10900834283F800E040F0C9800A60AD
:103420009DF800009DF80230834240F0C4800024E3
:1034300027469DF80200FFF713FD9DF80220027059
:103440009DF80220427000228270FFF78BFC04B1CD
:1034500017B39DF80030AB4200F09C809DF80170DE
:10346000FF2F1BD1336868462021984720B9664A50
:10347000137843F0040313709DF8053003F00F0236
:10348000511C61F303038DF80530C3F303139A4213
:1034900002DA6846FFF71CFC00247CE0BD422BD119
:1034A00064B99DF807304BB13368684620219847CE
:1034B00020B9554A137843F0040313709DF8043083
:1034C00003F0C003402B12D19DF8073013B95248C6
:1034D000182108E04B480C216A46FFF712FF00282C
:1034E00058D1002001466A46FFF70BFF52E09DF8D5
:1034F0000330002B4ED1F4E7484B1B78002BCBD088
:103500009DF8054004F00F064FEA14184645C3DA4B
:10351000013666F303043846FFF712FC8DF80540C8
:103520009DF80340A5421ED19DF8041001F0C00192
:10353000402906D0A1F180035A425A41144618B9D5
:103540001BE00122002854D0C029437805D19F42B6
:1035500003D0003318BF012300E00023134303F01E
:10356000010428B90BE0ACB910B9684641460FE038
:1035700043788DF80330857804E0C02939D00025E0
:103580008DF803506846FFF7A3FB1CB16846294637
:10359000FFF71EFC6C46FFF775FB2046204904220E
:1035A000FFF78EFC20461F490222FFF789FC22E02C
:1035B00003330B6034E785423FF439AFFFF750FC2B
:1035C0000446FFF7CFFB23783BB19DF80530A27886
:1035D00003F00F0393423FF72AAF9DF800302370AA
:1035E0009DF8023063709DF80530C3F30303A370A8
:1035F0001DE70346B2E708B0BDE8F081E4C207204A
:103600001CC20720D8C207200AC3072005C0072014
:10361000EDC2072000C00720C0C20720ECC207206F
:1036200030C207200BC3072000231846094A1A445A
:1036300052780AB10130C0B22433902BF6D1064B38
:103640005A780AB10130C0B293F825300BB101307D
:10365000C0B2704730C207200BC3072008B5FFF780
:103660006FFB064B28B18278187802FB0000C0007F
:1036700008BD18781823584308BD00BF04C00720B0
:1036800003490B6803604B6843608B688360704735
:10369000D8C2072030B5414C4FF48035E561404C2D
:1036A000A060E068C506FCD43D488068C0B20BB994
:1036B0000C4665E00B46002A6AD0072A384C0D7884
:1036C0002FDDA5604D78083AA5608D78A560CD788E
:1036D000A5600D79A5604D79A5608D79A56001F192
:1036E0000805C979A1602E498C696407FBD58C68EF
:1036F0001C708C685C708C689C708968D9702849D3
:10370000CC68E406FBD48C68083303F8044C8C685E
:1037100003F8034C8C6803F8024C896803F8011C19
:103720001BE0032A1BDDA5604D78043AA5608D7867
:10373000A5600D1DC978A1601949CC68E406FBD4C9
:103740008C68043303F8044C8C6803F8034C8C68D1
:1037500003F8024C896803F8011C2946ABE70131E4
:10376000A560013AE568ED06FCD40D4C0133A46870
:1037700003F8014C9FE7DD68ED06FCD4084B9B681D
:10378000631A934204DA14F8015B054B9D60F2E77B
:10379000024B4FF480329A6130BD00BF00C0092057
:1037A0000080084007B5002302A9012201F8013D6D
:1037B00000F01F001346FFF76DFF9DF8070003B0F0
:1037C0005DF804FB07B502AB03F8011D00F01F0014
:1037D00019460122002340F02000FFF75BFF03B0F1
:1037E0005DF804FB08B51720FFF7DCFFC0F30010FD
:1037F00008BD07207021FFF7E5BF03460A46A02059
:1038000019460023FFF746BF08B50020FFF7CAFF9F
:10381000BDE8084000F0FE010020FFF7D3BF000024
:10382000024B4FF08072DA61704700BF20C0092060
:1038300008B50020FFF7B6FF40F00101C9B2002033
:10384000FFF7C0FF024B4FF080729A6108BD00BFC6
:1038500020C0092007202021FFF7B4BF0021E1206C
:103860000A460B46FFF716BF37B50C460546FFF76D
:10387000F5FF21462846FFF7C0FF0D4B4FF0807241
:103880001C469A610022ADF80620BDF806300133CF
:103890009BB2ADF8063033B94FF08073E361FFF7A8
:1038A000DDFF03B030BDFFF79DFF0028EDD0F3E74B
:1038B00020C0092008B51720FFF774FF00F00100B1
:1038C00080F0010008BD07204021FFF77BBF08B54D
:1038D00003460A46612019460123FFF7DBFEC0F3C9
:1038E000420008BD0021E2200A460B46FFF7D2BE87
:1038F00070B5064600200D461446FFF753FF16B17B
:1039000000F0BF0002E040F04000C0B215B100F08E
:10391000DF0101E040F0200114B101F0EF0101E00E
:1039200041F010010020BDE87040FFF74BBF10B51B
:1039300004460020FFF736FF14B900F0F7010DE050
:10394000012C04D100F0FB0141F0080106E0022C3B
:1039500014BF40F0080140F00C01C9B20020BDE8DE
:103960001040FFF72FBF08B50020FFF71BFFBDE891
:10397000084040F00201C9B20020FFF723BF08B59C
:103980000020FFF70FFFBDE8084000F0FD01002018
:10399000FFF718BF40F6DD13984206D840F66213D1
:1039A000B0F5166F38BF184600E01846A0F516614E
:1039B000C9B20520FFF706BF10B504460620FFF781
:1039C000F1FEFA2C00F0D70102D141F0200104E011
:1039D000B4F5FA6F08BF41F008010620BDE81040B9
:1039E000FFF7F0BE10B504460620FFF7DBFE032C00
:1039F00020F0060028BF032440EA4401C9B2062093
:103A0000BDE81040FFF7DEBEF9284FF0FA0305D9F4
:103A1000B0F57A6F88BF4FF47A6000E01846B0FBCB
:103A2000F3F00F2900F1FF30C0B228BF0F2141EAA7
:103A30000011C9B20420FFF7C5BE1130C0B216286C
:103A400004D8202928BF2021FFF7BCBE70470328D7
:103A500004D0042814BF0321022100E00121032027
:103A6000FFF7B0BE03460A46302019460023FFF791
:103A700011BE03460A462A2019460023FFF70ABE54
:103A800073B50E4615460446FFF72CFFFFF7E6FE1A
:103A90002B4B4FF08072DA61FFF771FF00210A466D
:103AA0000120FFF725FFFFF7A4FE0220FFF73FFFED
:103AB0003046FFF76FFF2846FFF77EFF0320FFF732
:103AC00091FF02200321FFF77DFE01200021FFF777
:103AD00079FE4FF4FA700321FFF796FF214600208C
:103AE000FFF7ABFF12200021FFF76CFE132000212F
:103AF000FFF768FE14200021FFF764FE1520002167
:103B0000FFF760FE00211620FFF75CFE0D4B1868E2
:103B10001B79009005208DF80430FFF798FF684668
:103B20000521FFF79FFF68460521FFF7A2FFFFF77A
:103B30001AFF4FF4FA6004F054FC02B070BD00BFED
:103B400020C00920FF47020007B5094B002102AA47
:103B5000186842F8041D0B4605F0E7FE019B1BB1F7
:103B6000044B4FF080521A6003B05DF804FB00BFB5
:103B70005CC3072004ED00E070B5174E326822B92F
:103B80000320202105F007FE3060144D2A6822B979
:103B90000120202105F0FFFD2860114C216821B98A
:103BA0000120032205F0F7FD2060202040F6C3111C
:103BB0004FF4FA62FFF764FFFFF73AFE1620012187
:103BC000084A04F08FFD306828B1286818B12068D1
:103BD000003018BF012070BD58C3072054C3072010
:103BE0005CC30720493B010070B5064603790022FB
:103BF00003F0C003C02B0CBF0D4B0E4B88B01D68EB
:103C000031462846134605F0F7FD044660B92246C2
:103C100023466946284605F0C3FE22462346284629
:103C2000314605F0E9FD0446204608B070BD00BFEE
:103C300054C3072058C3072038B504460D46FFF784
:103C40000BFA237883420AD0E37843B90AF088F963
:103C5000BD2300F0030000FB033004F0C2FBFFF7BC
:103C6000DFFDFFF7D1FD2046A9B2FFF7FDFDFFF70D
:103C7000F1FDFFF7DDFD06F017FC022806D1044B2D
:103C8000002118680A460B4605F04FFE012038BD9A
:103C90005CC3072038B505460C46FFF70BFE48B15C
:103CA000A1B22846FFF713FEFFF704FE08B9FFF79D
:103CB0000AFE012038BD2DE9704306460D46144624
:103CC00006F0F2FB022807D122463046294600239F
:103CD00005F066FEC4B21DE006F080FF4FF47A7274
:103CE000002308F0E7F910EB040841F10009002275
:103CF00030462946134605F053FEC4B254B906F0C7
:103D00006DFF4FF47A72002308F0D4F9894508BF9B
:103D10008045ECD22046BDE87083042938B50546BD
:103D200003D1041C18BF012400E0002406F056FF54
:103D30002CB14FF47A72002308F0BCF928602046B9
:103D400038BD000000B50C4B8DB009930B4B0C4AED
:103D50000B930C4B0A930CAB43F8102D00220492EA
:103D60000FCB8DE80F00084B0121084A6A20FFF7AE
:103D700027FA0DB05DF804FB793B0100953C01008A
:103D80001B3D0100393C0100E93B010004480200F1
:103D900003460A46024908681946FFF78CBF00BF70
:103DA00058C3072003460A46024908681946FFF728
:103DB00082BF00BF54C3072008B506F075FB0F4B48
:103DC00002285B6913D15A020DD5FFF72DFC0C4B6D
:103DD00000284FF00001186814BF01224FF0FF3295
:103DE0000B4605F0DDFDBDE80840FFF7BBBA5B02FE
:103DF000F9D5FFF719FC0028F5D108BD00C009204E
:103E00005CC3072030B504460D46134621792A4687
:103E1000BDE83040006805F0F5B81FB50A4604ABB0
:103E20000021022423F8041D01790094006805F0A4
:103E3000D4F89DF80C009DF80D3043EA002004B042
:103E400010BD10B504462A211922FFF7DBFF2068B8
:103E500021790D2205F0C5F8A0F12A0358425841F6
:103E600010BD0000044A13881F2B9FBF581C1080F0
:103E7000024A42F82310704764C3072068C3072032
:103E8000144AF0B51488012C20D9134B00211F4689
:103E9000661EB14206DA58681D680131401B43F8BE
:103EA000040BF5E77B6803EB5301002318469CB233
:103EB000B44209DA57F8245001338D4282BF0125FC
:103EC00005FA04F42043F2E7044B18600023138042
:103ED000F0BD00BF64C3072068C3072060C307208C
:103EE00008B50220012106F011FE084B01209A6A54
:103EF00022F007029A629A6A42F006029A62044A23
:103F0000D36843F03003D36008BD00BF0080004099
:103F100000C00240024B1868003018BF01207047F3
:103F200060C30720024B002218681A60704700BF68
:103F300060C3072008B5044A01F07F034171D25CD9
:103F40000321FFF75FFF08BD0948020008B5044AD6
:103F500001F07F038171D25C0221FFF753FF08BD9E
:103F60000948020038B504460068217905F055F883
:103F7000054688B1204606210022FFF743FF204670
:103F800007210022FFF73EFF20462E21FFF7D2FF38
:103F900020462E21FFF7DAFF284638BD10B504462B
:103FA0002021FFF7C7FF2046BDE810402021FFF782
:103FB000CDBF642370B5B1FBF3F404FB1311CCB295
:103FC0000A21B4FBF1F501FB15413031C9B20646B7
:103FD000FFF7BCFF092C8ABF05F13001304630469F
:103FE000BDE8704094BF2021C9B2FFF7A3BF0120F4
:103FF0007047000038B50D46044606F091FB05F009
:104000000F032370114B15F0010F4FF0010214BF85
:10401000DA619A61227812F0020F4FF0020214BFA7
:10402000DA619A61227812F0040F4FF0100214BF87
:10403000DA619A61227812F0080F4FF4807214BF8F
:10404000DA619A61BDE8384006F07CBB20C00920E7
:1040500001207047022004F055BA0120704700008B
:10406000044B5B69C3F38130C3F3412343EA80000F
:10407000704700BF20C0092010B5044601218122ED
:10408000FFF7C0FE20682179012204F0AAFF10F09A
:10409000600F14BF0120002010BD38B50021054677
:1040A000FFF7BBFE8122012184B22846FFF7AAFE5A
:1040B00024B2102094FBF0F007F012FE4FF076517E
:1040C00007F062FEA96807F057FD38BD08B5FFF795
:1040D000E4FF054907F058FE044907F009FF4FF0D7
:1040E000844107F049FD08BD000010410000A040D8
:1040F0002DE9F04F0546ADF2546D0C46904682A86E
:10410000294601229946DDF878A602F011F8002828
:1041100067D121460DF22C400A2202F009F804462C
:1041200020B182A802F075FA20465AE0834606467E
:104130000090019006F052FD4FF47A72002307F0D0
:10414000B9FF02A907464FF4007282A86B4602F03D
:1041500088F80546D8B9009BCBB106F03FFD4FF477
:104160007A720023F61B07F0A5FF064406F036FD21
:104170004FF47A72002307F09DFF02A90746009AC8
:104180000DF22C4001AB02F02AF90546B8B1B8F1A6
:10419000000F01D0C8F80060B9F1000F01D0C9F8D4
:1041A00000B0BAF1000F01D0CAF8004082A802F0B6
:1041B00030FA0DF22C4002F02CFA284611E0019A58
:1041C000009B9A42E3D106F009FD4FF47A72002376
:1041D00007F070FF009BBBEB070200EB020B1C44D7
:1041E000A8E70DF2546DBDE8F08FF0B50446ADF5CB
:1041F0000B7D0F46164621461D4601A800230122CD
:10420000009301F095FF044670B91DB101A829463D
:1042100002F011FA01A8394632466B4602F021F845
:10422000044601A802F0F5F920460DF50B7DF0BD1E
:10423000F0B50446ADF50B7D0F46164621461D46EA
:1042400001A800230A22009301F072FF044670B90E
:104250001DB101A8294602F0EEF901A839463246FF
:104260006B4602F0BCF8044601A802F0D2F92046E1
:104270000DF50B7DF0BDF0B50446ADF50B7D0F4699
:10428000164621461D4601A800231222009301F084
:104290004FFF044680B901A80DB1294600E00499FA
:1042A00002F0C9F901A8394632466B4602F097F888
:1042B000044601A802F0ADF920460DF50B7DF0BDD6
:1042C0007F2816D931B1FF2812D80A4B803833F82D
:1042D00010007047074A8BB232F81120824203D097
:1042E00001318029F6D10B4603F18000C0B270473E
:1042F000002070476A4A02000023064A32F8132061
:1043000032B1904201D00133F7E7034A32F813008B
:10431000704700BF6A4B02008A48020010B50120B6
:104320000C4605F0DCFA2060003018BF012010BDFB
:104330000120704710B5044606F0B6F802280AD1ED
:1043400000210B4620464FF0FF3205F029FB431EAB
:104350005842584110BD012010BD10B5044606F06A
:10436000A3F8022807D100212046BDE810400A46E4
:104370000B4605F041BA10BD10B5044604F036FCFA
:1043800024B1012C06D100F07BF901E000F0EEFC35
:10439000044600E0042404F041FC204610BD28B18E
:1043A000012801D00420704700F018BA7047F8B512
:1043B00007460E4615461C4604F018FC3FB1012F77
:1043C0000CD130462946224600F010FA04E030466F
:1043D0002946224600F016FD044600E0042404F0BD
:1043E0001DFC2046F8BDF8B507460E4615461C468E
:1043F00004F0FCFB3FB1012F0CD130462946224688
:1044000000F042FA04E030462946224600F020FD42
:10441000044600E0042404F001FC2046F8BD70B519
:1044200006460D46144604F0E1FB36B1012E0AD1D2
:104430002846214600F082FA03E02846214600F093
:104440002BFD044600E0042404F0E8FB204670BD88
:1044500008B506F0C3FB4FF47A72002307F02AFE7A
:1044600008BD000010B5044606F030FD074BB0FB58
:10447000F3F00223B0FBF3F2944202D3044A136137
:1044800010BDB3F5807FF9D00233F3E740420F004F
:1044900000000340044B9860DA68D206FCD4024B5B
:1044A0009868C0B2704700BF0000034038B5FFF7FE
:1044B000CFFF00F5FA75FF20FFF7ECFFFF20FFF7B5
:1044C000E9FFFF28044606D0FFF7C2FF0023994208
:1044D00008BFA842F2D3204638BD000038B5064CCC
:1044E0004FF00075E561FFF7E1FF044AA56113781D
:1044F00043F00103137038BD20C0092006C0072017
:1045000070B505460E46FFF7A3FF00F16404FF20D7
:10451000FFF7C0FFFF2808D1FFF79AFF0023994259
:1045200008BFA042F3D3002070BDFE28FBD1102E9F
:1045300006D928464FF40071002204F0F5FA19E07C
:104540002C1DFF20FFF7A6FF04F8040CFF20FFF747
:10455000A1FF04F8030CFF20FFF79CFF04F8020CF6
:10456000FF20FFF797FF043404F8050C331D1B1BD5
:10457000DD42E6D1FF20FFF78DFFFF20FFF78AFF26
:10458000012070BD70B506460D46FFF78FFFFF286E
:10459000044619D12846FFF77DFFFD2D16D04FF4B4
:1045A00000712246304604F0BFFA2046FFF772FF42
:1045B0002046FFF76FFF2046FFF76CFF00F01F005B
:1045C000431F5842584170BD002070BD012070BD8E
:1045D000020638B504460D4607D577200021FFF7BF
:1045E000F7FF012836D804F07F041B4B4FF0007210
:1045F0009A61DA61FFF75AFFFF282AD12046FFF7B8
:1046000049FF280EFFF746FFC5F30740FFF742FFBB
:10461000C5F30720FFF73EFFE8B2FFF73BFF402C52
:1046200004D0482C0CBF8720012000E09520FFF724
:1046300031FF4C2C02D1FF20FFF72CFF0A24FF2072
:10464000FFF728FF030605D5013C14F0FF04F6D15F
:1046500038BDFF2038BD00BF20C00920064A0749E9
:1046600013784969DBB2490154BF03F0FD0343F0FD
:1046700003031370704700BF06C0072020C0092045
:104680002DE9F347FFF7EAFF514B1A781E4612F067
:10469000020F01D0187896E00120FFF7E3FE0A240C
:1046A000FF20013CFFF7F6FE14F0FF04F8D1494D5E
:1046B0004FF00073EB6140202146FFF789FF01288E
:1046C00001D000246EE0FFF7C3FE4FF4D57100F572
:1046D0007A7A4820FFF77CFF01283DD1FF20FFF7C1
:1046E000D9FE01AF38550134042CF7D19DF80630BE
:1046F000012BE6D19DF80730AA2BE2D1FFF7A8FEE7
:104700004FF00009494508BF5045D04606D3FFF792
:104710009FFE494508BF4045D3D207E0E9204FF04E
:104720008041FFF755FF0028E8D1F0E77A2000210B
:10473000FFF74EFF0028C4D10446FF20FFF7AAFE72
:1047400038550134042CF8D19DF8043013F0400F93
:1047500014BF0C24042425E02146E920FFF738FF8C
:10476000022835BF02240124E9274127FFF770FE04
:104770004FF00009494508BF5045D0460BD3FFF71D
:1047800067FE494508BF40450CD34FF400715020E7
:10479000FFF71EFF06E038460021FFF719FF00284B
:1047A000E4D1ECE70C4B1C704FF00073AB613CB1F3
:1047B0003378182003F0FE033370FFF753FE01E057
:1047C000FFF78CFE3078C0B202B0BDE8F08700BFC2
:1047D00006C0072020C00920E8C3072008B5FFF75E
:1047E0003DFF014B187808BD06C00720F8B51446F8
:1047F00007460E46FFF732FF002C3AD01F4B1B78BE
:10480000DB0738D41E4B4FF00072DA611D4A1D469B
:10481000127812F0080F08BF7602012C0DD151203A
:104820003146FFF7D5FEE8B938464FF40071FFF77F
:1048300067FEB0FA80F4640914E052203146FFF7B5
:10484000C7FE78B938464FF40071FFF759FE28B11A
:10485000013C14F0FF0407F50077F3D14C20002150
:10486000FFF7B6FE4FF00073201CAB6118BF0120AC
:10487000F8BD0420F8BD0320F8BD00BF06C0072026
:1048800020C00920E8C30720F8B5144607460E46A5
:10489000FFF7E4FE002C45D0254B1A78D20743D40D
:1048A0001B785B0742D4234B4FF00072DA61224A37
:1048B0001D46127812F0080F08BF7602012C0CD1A9
:1048C00058203146FFF784FE28BB3846FE21FFF70B
:1048D00059FEB0FA80F464091DE012F0060F03D00F
:1048E000D7202146FFF774FE59203146FFF770FEAE
:1048F00088B93846FC21FFF745FE28B1013C14F089
:10490000FF0407F50077F4D10020FD21FFF73AFE00
:10491000002808BF01244FF00073201CAB6118BFB2
:104920000120F8BD0420F8BD0320F8BD0220F8BD29
:1049300006C0072020C00920E8C307207FB5044631
:104940000D46FFF78BFE052C1AD12B78012B00F0BA
:10495000FD8003D3022B0BD00420FAE07E4B586974
:1049600010F0806440F0F280FFF7B8FD2046F0E0E0
:10497000794B5B6983F08063C3F380636B70E5E020
:10498000764B1B78DB0700F1E3800E2C00F2D88019
:10499000DFE804F008124F53D6D6D6D6D6D6A3A851
:1049A000AAB4C4006C4B4FF00072DA61FFF77EFDD1
:1049B000FF3818BF0120C4E049200021FFF708FE9E
:1049C000044608B10120BCE068461021FFF798FDBD
:1049D0000028F7D09DF800309DF809009B09012BB5
:1049E0009DF8083005D1013000EB03239BB29B02F8
:1049F0001CE09DF80710890001EB93135A1C9DF8E9
:104A000006309DF8051003F0030302EB83239DF8A5
:104A10000A2001F00F0101EBD212911C00F00302F9
:104A200001EB4202D2B29BB2093A93402B6020467E
:104A300087E04FF400732B8052E0494E337803F047
:104A4000040303F0FF01DBB1CD200021FFF7C0FD1F
:104A50000028B7D1FF20FFF71DFD68461021FFF7A2
:104A60004FFD0028AED03024FF20FFF713FD601E5D
:104A700010F0FF04F8D19DF80A2010231209D4E7A2
:104A80004920FFF7A5FD044600289BD16846102168
:104A9000FFF736FD002895D031789DF80A2001F007
:104AA000020101F0FF009DF80B3051B102F03F020E
:104AB000DB0903EB42039DF80D2001339209013A13
:104AC000B3E7C2F3840103F003045A0902EBC40202
:104AD000531C01FB03332B6033E0214B1B782B70FD
:104AE00000202EE0492000E04A200021FFF770FD61
:104AF00000287FF467AF284610211BE07A200021B0
:104B0000FFF766FD00287FF45DAF2C1DFF20FFF747
:104B1000C1FC05F8010BA542F8D1E1E7CD20002149
:104B2000FFF756FD00287FF44DAFFF20FFF7B2FCE2
:104B300028464021FFF7E4FCB0FA80F0400900E08D
:104B40000420054B4FF000729A6102E0002000E063
:104B5000032004B070BD00BF20C0092006C007209C
:104B6000E8C30720054B1B78253BDBB2032B9ABF1C
:104B7000034A52F823000020704700BFECC307200F
:104B8000544D02001B4B2DE9F0411D880646B5F53A
:104B9000007F0F46144602D1084611460AE0B5F5DB
:104BA000807F09D1084611462A46B04707F5807034
:104BB00004F580712A4617E0B5F5047F05D1510A46
:104BC000384689024FF400720EE0B5F5847F0FD1AC
:104BD000140A08464FF480726102B047611C07F561
:104BE000807049024FF480723346BDE8F0411847A7
:104BF000BDE8F081EAC30720034610B500295DDD5A
:104C000007291A782E4C2FDDA2605A780839A26045
:104C10009A78A260DA78A2601A79A2605A79A260C2
:104C20009A79A26003F10802DB79A360244B9C69A6
:104C30006407FBD59C6804709C6844709C68847011
:104C40009B68C3701E4BDC68E406FBD49C6808308C
:104C500000F8044C9C6800F8034C9C6800F8024C77
:104C60009B6800F8013C1BE003291BDDA2605A7819
:104C70000439A2609A78A2601A1DDB78A360104BF9
:104C8000DC68E406FBD49C68043000F8044C9C68A3
:104C900000F8034C9C6800F8024C9B6800F8013C4B
:104CA0001346ABE70133A2600139E268D206FCD4B7
:104CB000034A0130926800F8012C9FE710BD00BF45
:104CC0000000034007B50B0C8DF804008DF805308B
:104CD0008DF807100B0A01A804218DF80630FFF7A4
:104CE0008BFF03B05DF804FBF7B5164607460E4C84
:104CF00040250323E5618DF804300B0C8DF8053059
:104D00008DF807100B0A01A804218DF80630FFF773
:104D100073FF38463146002203F006FFA561A56106
:104D2000A56103B0F0BD00BF00C009200D4B4022BB
:104D3000DA610D4BD7229A60DA68D106FCD40A4BAF
:104D40009B68094BFF229A60DA68D206FCD4064BB6
:104D500098680306F5D5034B40229A61C0B29A6168
:104D60009A61704700C0092000000340F7B5FFF7C3
:104D7000DDFF1F4C002323801E4B1F4E40271A8847
:104D80009B78F7610546032101A8ADF804208DF852
:104D90000630FFF731FF9DF805209DF806301F2AE9
:104DA000B761B761B7611CD1A3F12502032A18D8F6
:104DB000124A252B137005F0010006D1002814BFFC
:104DC0004FF480734FF4847305E0002814BF4FF450
:104DD00000734FF404732380FFF7C4FE084B400AAE
:104DE00018602088B0FA80F0400903B0F0BD00BF21
:104DF000EAC307204A4D020000C00920ECC3072087
:104E0000F0C307202DE9F0418B1817460E4A013BED
:104E100012688046934214D84D024446FFF786FF3D
:104E20000026C8EB0502BE42224407DA21460748A5
:104E3000FFF7A8FE04F500740136F2E70020BDE894
:104E4000F0810120BDE8F081F0C30720E94C0100AA
:104E50002DE9F0418B1817460D4A013B1268804638
:104E6000934212D804464D020026C8EB0502BE420A
:104E7000224407DA21460748FFF784FE04F5007450
:104E80000136F2E70020BDE8F0810120BDE8F081A5
:104E9000F0C30720794F010010B50C46072805D84C
:104EA000DFE800F006090E1214141414042010BDDB
:104EB000FFF73CFF0AE0FFF755FE400A206005E0DF
:104EC0004FF400730B8001E001230B60002010BD44
:104ED00070B590B003466A466E4600F14005144630
:104EE00018685968083303C4AB422246F7D1084D0D
:104EF0004024EC619B200021FFF7E4FE3046214670
:104F0000FFF77AFEAC61AC61AC6110B070BD00BF60
:104F100000C0092070B50646074D402477200021C7
:104F2000EC61FFF7CFFE30462146FFF765FEAC612E
:104F3000AC61AC6170BD00BF00C00920064B10B56C
:104F40001C8834F01F0404D0FFF70CFEB0FBF4F013
:104F500010BD204610BD00BFEAC30720014B1888D2
:104F6000704700BFEAC30720024B1878003018BF13
:104F700001207047EAC307202DE9F7434FF0FF33C4
:104F80000F46904601938146FFF7D0FEFFF7ECFFF6
:104F90000646B0B1194C4025194BE5611B8803202A
:104FA000B3F5847F0CBF4FF480714FF40071394327
:104FB000FFF788FE01A80421FFF71EFEA561A56189
:104FC000A5610E4C402382203946E361FFF77AFE4B
:104FD00048464146012203F0A7FD3EB1019B02A8CD
:104FE000013340F8043D0421FFF706FE4023A3618E
:104FF000A361A36103B0BDE8F08300BF00C0092036
:10500000EAC30720F7B5124B07461B88B3F5847F28
:105010004FF0FF330CBF4FF480764FF400760193CE
:10502000FFF7A2FF70B10B4C4025032046EA472151
:10503000E561FFF747FE01A80421FFF7DDFDA5614B
:10504000A561A5610198431C08BF002003B0F0BD15
:10505000EAC3072000C0092037B5074B074C186882
:10506000402501900421E56101A8FFF7C5FDA56178
:10507000A561A56103B030BD4D4D020000C00920FF
:105080001FB501A803F074FC9DF809309DF80820B5
:1050900003F00F0302F01F025B0543EA02419DF893
:1050A00006309DF8040003F01F0341EAC3229DF877
:1050B0000530C0F3440003F03F0342EA4313BDF858
:1050C0000A201843520602F10842104305B05DF869
:1050D00004FB30B504460D1F131B0344032B04D9F6
:1050E00055F8043F44F8043BF6E722F00303194463
:1050F00002F00302013B18440A44914204D011F823
:10510000013B00F8013FF8E730BD0244904202D075
:1051100000F8011BFAE7704700F10B010023DA01E8
:1051200042EA530310F8012B1344884203F0FF03B3
:10513000F5D118467047026810B50446BAB1134657
:10514000184613F8011B1F2902D93A29F8D101E0AA
:10515000002010BD114611F8013B884207D1303BB9
:10516000D9B2012903D802321846226010BD4FF08F
:10517000FF3010BD03692DE9F04101F109020D4630
:1051800053B3416900244E1E16F8013F0134202B11
:1051900018D0052B47D0092C02D12E2717700132C9
:1051A000A3F14107192F0BD8082C0F7B8CBF4FF0B0
:1051B000100E4FF0080E1EEA070F1CBF2033DBB2A3
:1051C000137001320B2CDFD1CB7A2B72CB692B60A1
:1051D0000B8BAB80CB8AEB8000241470AE693EB39E
:1051E00003690BB900241AE0EB69002BFAD04FF6E3
:1051F000FF73028C9A42F5D0D0F81C80771E38F8E5
:10520000140060B10021FFF75BF80028EAD0EB69D9
:10521000013B9C42E6D2013407F8010FEFE700237F
:105220003355BDE8F081092C4FF0E503C8D1B4E750
:10523000BDE8F081F8B5037904460BB90020F8BD4C
:10524000056B00F13407394640782A460123FFF701
:10525000CAF890B9636AE269EB1A93422071EDD201
:10526000E678012EEAD9E36960781D4439462A467A
:105270000123FFF7B8F8013EF3E70120F8BD000075
:10528000F8B50446FFF7D6FF05468DBB2378032B00
:1052900026D16679012E23D104F1340738462946F8
:1052A0004FF40072FFF731FF4AF65523A4F832326B
:1052B000104B226A636303F1FF5303F5005320335D
:1052C000C4F8183263690132C4F81C3223692263BE
:1052D000C4F82032607839463346FFF784F86571A8
:1052E000002160780A46FFF79AF8003018BF0120C5
:1052F000F8BD00BF52526141036B70B5994205463B
:105300000E4610D0FFF796FF044608B101240BE0CB
:10531000687805F1340132460123FFF748F8002888
:10532000F4D12E6300E00024204670BD002310B5A8
:1053300003714FF0FF3303630446FFF7DDFFA0B9AD
:105340004AF65523B4F832229A4210D1D4F86A3082
:10535000084A23F07F4393420AD0D4F8860020F015
:105360007F40801A18BF012010BD032010BD02200D
:1053700010BD00BF46415400F0B50023036085B066
:10538000074608461546FFF7D6FE061EC0F2F28015
:105390007E4B53F82640002C00F0EE80E068FEF7CC
:1053A000C9FF002800F0EA803C60237883B1607870
:1053B000FEF7F5FFC1070BD4002D00F0D98000F0F7
:1053C000040303F0FF00002B00F0DD800A20DAE088
:1053D0000023F0B223706070FEF7CEFFC20700F129
:1053E000CF800DB14307F1D420460021FFF79EFF87
:1053F00001281CD12146002291F8F6310BB1D1F8D9
:10540000FA314DF822300132042A01F11001F3D1B2
:1054100000265DF826502DB120462946FFF786FF6D
:1054200008B90BE002200136042EF2D100E000257D
:10543000032800F0A78008B10D20A4E0B4F83F30A5
:10544000B3F5007FF8D1B4F84A0000B9A06D94F824
:1054500044E0E0610EF1FF33012B84F803E0EBD868
:1054600094F84130A370002BE6D05A1E1A42E3D1C3
:10547000B4F845C01CF00F0FA4F808C0DCD1B4F894
:10548000472002B9626DB4F842100029D4D00EFB57
:1054900000FE01EB1C177744BA42CDD3D21BB2FBFE
:1054A000F3F3002BC8D040F6F572934206D94FF6BD
:1054B000F576B3428CBF0326022600E001260233B4
:1054C00029442F44032EA36125626162E76206D15D
:1054D000BCF1000FB0D1226E9B00A26210E0BCF1C3
:1054E000000FA9D0022E4FEA43020CBF1346D21878
:1054F000714418BF03F00103A16218BF03EB52030C
:1055000003F2FF13B0EB532F96D34FF0FF336361D9
:105510002361032E4FF08003637122D1B4F864300D
:10552000012B1ED12046691CFFF7E6FEC8B94AF6DA
:105530005523B4F8322260719A4212D1626B144B37
:105540009A420ED103F1FF53D4F8182203F5005309
:1055500020339A4201BFD4F81C326361D4F8203260
:1055600023610C4A2670138801339BB21380E380B9
:10557000002008E00B2006E00C2004E00F2002E0F1
:10558000032000E0012005B0F0BD00BFF8C30720F4
:1055900052526141F4C3072010B50446A8B1036814
:1055A0009BB11A788AB1D988828891420DD1D86886
:1055B000FEF7C0FE58B123685878FEF7F0FE10F0F1
:1055C000010F14BF0320002010BD092010BD0F20C3
:1055D00010BD50B1A1F10B03012B06D9092904D04C
:1055E0000F2902D0C068FEF7B8BE70478369023940
:1055F000023B99423DBF8278C36A02FB0130002022
:1056000070470129F8B507460C464BD98369994282
:1056100048D20378022B29D0032B34D0012B41D15F
:1056200001EB5106416A01EB5621FFF765FE10B10F
:105630004FF0FF30F8BD796AC6F3080301363B44EA
:10564000384601EB562193F83450FFF755FE0028F9
:10565000EED1C6F308063E4496F83400E30745EA67
:1056600000204CBF0009C0F30B00F8BD416A01EBFC
:105670001421FFF741FE0028DAD1630003F4FF7321
:10568000FE18B08EF8BD416A01EBD411FFF734FE6D
:105690000028CDD1A40004F4FE743C44606B20F0DB
:1056A0007040F8BD0120F8BDF8B5054684680E4687
:1056B000012CE98001D10220F8BD03689A69944267
:1056C000F9D254B91A78032A01D19A6A22B91A89EF
:1056D0009642F0D2986A17E0144621469F783F011F
:1056E000BE420DD32868FFF78CFF431C01461AD039
:1056F0000128E0D92B689B699842DCD2F61BEFE7C2
:1057000028680C46FFF772FFEC600028D3D02B68A6
:1057100000EB161006F00F0603EB46163436286130
:105720006E610020F8BD0120F8BD0129F8B50546DD
:105730000C4616465FD9836999425CD20378022BE6
:1057400038D0032B42D0012B51D101EB5107416AD4
:1057500001EB5721FFF7D0FD002849D1C7F308031B
:1057600014F001042B4418BF93F83410F2B21EBF9A
:1057700001F00F0141EA0212D2B2696A83F83420C3
:10578000013701232B71284601EB5721FFF7B4FDA8
:1057900070BBC7F308072F4414B1C6F3071606E021
:1057A00097F83430C6F3032623F00F031E4387F81F
:1057B00034601DE0416A01EB1421FFF79DFDB8B98B
:1057C000640004F4FF742C44A68611E0416A01EBE6
:1057D000D411FFF791FD58B9A40004F4FE743034DD
:1057E0002C44636803F070431E43666000E00220AF
:1057F00001232B71F8BD0220F8BDF8B505460F4610
:1058000031B9066996B183699E4228BF01260EE030
:10581000FFF7F7FE01283FD9441C02D14FF0FF30BB
:10582000F8BDAB69984238D33E4600E001263446C5
:10583000AB6901349C4204D3012E01D80020F8BD8D
:10584000022428462146FFF7DCFE30B1411C24D05B
:10585000012822D0B442EBD1F0E7284621466FF070
:105860007042FFF762FFA8B957B96B692C615A1CE7
:105870000ED0013B6B616B7943F001036B7107E064
:10588000284639462246FFF750FF0028EDD001E0B8
:105890002046F8BD0128C1D00120F8BD2DE9F8430C
:1058A000C68804460136B3B20F4613B90420BDE8DA
:1058B000F8830369002BF9D016F00F0859D1C1689D
:1058C00001330361006819B903899E42EED250E0AA
:1058D0008378013B13EA16134BD1FFF792FE0128A0
:1058E000054602D80220BDE8F883421C02D10120FF
:1058F000BDE8F883206883699D4234D3002FD5D05A
:10590000E168FFF77AFF054600283BD00128E9D07F
:10591000431CECD02068FFF78DFC07460028E6D139
:105920002068394634304FF40072FFF7EEFBD4F8AC
:10593000009029464846FFF759FEC9F83000236811
:105940009A7897420CD201221A712068FFF772FCF4
:105950000028CCD122680137136B01331363EEE7C3
:105960001A6BD71B1F63E56020682946FFF73EFED0
:1059700020612368E68003EB481334336361002021
:10598000BDE8F8830720BDE8F88300002DE9F74F54
:1059900000210646FFF788FE002840F087804FF67A
:1059A000FF734FF0FF084446338430683169FFF7D6
:1059B000A3FC00287AD175692B78002B6DD0E52BDC
:1059C000E97A5FD00F0701F03F0202D50F2A59D1C3
:1059D00001E00F2A42D1D6F81C90B9F1000F55D042
:1059E000580606D503F0BF04F38895F80D8033847C
:1059F00001E0A34249D16B7B434546D12F784FF05C
:105A0000000A27F040077B1E0D275F430123294A28
:105A10001AF80220A85A83B1FEF76EFC7F2F01907E
:105A200033D839F81700FEF767FC019A07F1010B2C
:105A30008242034629D15F4603E04FF6FF7290424F
:105A400023D10AF1010ABAF10D0FE0D12A785106EB
:105A500029D543B339F817302BB316E024B92846BB
:105A6000FFF75AFB80451AD0B369DA7AD20709D416
:105A700005F10B00854214D015F8011B13F8012B1A
:105A80009142F7D04FF6FF733384FF243046002154
:105A9000FFF704FF002888D008E0042006E0204635
:105AA00004E0002002E0013CE4B2EFE703B0BDE80F
:105AB000F08F00BF544E02002DE9F74F0B780746D8
:105AC0002F2B884601D05C2B01D108F1010800245E
:105AD000BC6098F800301F2B5DD838462146FFF790
